:020000040000FA
:1000000002004A7582E3758302740012005C7A0074
:100010007B0290007A780779018015E493A3AD8282
:10002000AE838A828B83F0A3AA82AB838D828E8378
:10003000D8E9D9E77582AD758302740012005C754A
:100040008207758303740012005C75D0007581BF50
:10005000750900750A02759F0002000EC09FF59F8A
:10006000E473D09F22D083D082C09FE493C0E07419
:100070000193C0E0740293F59F2253464E434F0014
:10008000120065780100120065C80100120065F1D8
:100090000100120065540200120065920200120075
:1000A00065C8020012006515030012006503000018
:1000B000250910AF08F509400C150A8008F509401C
:1000C00002150AD2AF222509C582C0E0E50A34FF35
:1000D000C583C0E0E509C3958224F810AF08858385
:1000E0000A858209800885830A858209D2AFCEF00D
:1000F000A3E520F0A37808E608F0A3DEFAEFF0A36A
:10010000E58124FAF8E608F0A3E608F0A3E608F093
:10011000A30808E608F0A3E608F0A315811581D02E
:10012000E0FED0E0F8158115811581E8C0E0EEC051
:10013000E022850A83850982E0A3FEE0A3F520780A
:1001400008E0A3F608DFFAE0A3FFE0A3C0E0E0A325
:10015000C0E0E0A3C0E0E0A3C0E0E0A3C0E010AFD7
:100160000885820985830A800885820985830AD2E9
:10017000AFD083D08202006274F71200C689087E75
:10018000007F00801DC283E508C313F5087A027B57
:1001900000120086D2827A027B001200860EEE7078
:1001A000010FC3EE9408EF9400A2D265D033501330
:1001B000C2827A017B00120086E508A2E050C6D216
:1001C0008380C47F010201327C007D00801308E837
:1001D000700109C3E89417E9940240F20CEC700135
:1001E0000DC3EC9AED9B50067800790080E5020083
:1001F00062C082C083C2807A037B00120086D280F4
:10020000C28179E41200807A027B0012008679FFB5
:10021000120080D2817A027B00120086C28179E0CE
:100220001200807A027B001200867907120080D2C9
:1002300081C28179E41200807A027B001200867903
:10024000FF120080D2817A027B00120086D083D018
:100250008202006274F71200C68908EAFEEBFFC250
:10026000817A027B0012008674202508F912008032
:1002700080128E828F83E0F91200808E828F83A39A
:10028000AE82AF838E828F83E070E7D2817F0102DE
:100290000132C082C083C2817A027B00120086795B
:1002A000E8120080D281D083D08202006212009EC8
:1002B00012008C7A007B0279001200921200987A68
:1002C0001E7B0012008680F785F3F385FDFD53F356
:1002D000FD43FD0253F3FB43FD0453F3F743FD08D5
:1002E00002006274F71200C674FE1200B0EAFEEB60
:1002F000FF850982850A83EEF0A3EFF0AA09AB0A15
:1003000079011200A480EAC082C0831200AAD083BF
:08031000D082020062020062CB
:040000050000004AAD
:00000001FF
